{
  "_format": "hh-sol-artifact-1",
  "contractName": "Loyalty",
  "sourceName": "contracts/Loyalty1.sol",
  "abi": [
    {
      "inputs": [
        {
          "internalType": "string",
          "name": "_name",
          "type": "string"
        }
      ],
      "name": "addPartner",
      "outputs": [
        {
          "internalType": "string",
          "name": "",
          "type": "string"
        }
      ],
      "stateMutability": "nonpayable",
      "type": "function"
    },
    {
      "inputs": [
        {
          "internalType": "string",
          "name": "_name",
          "type": "string"
        },
        {
          "internalType": "uint256",
          "name": "_cost",
          "type": "uint256"
        },
        {
          "internalType": "uint256",
          "name": "_token",
          "type": "uint256"
        }
      ],
      "name": "addProduct",
      "outputs": [],
      "stateMutability": "nonpayable",
      "type": "function"
    },
    {
      "inputs": [
        {
          "internalType": "string",
          "name": "_name",
          "type": "string"
        },
        {
          "internalType": "string",
          "name": "_password",
          "type": "string"
        }
      ],
      "name": "addUser",
      "outputs": [
        {
          "internalType": "string",
          "name": "",
          "type": "string"
        }
      ],
      "stateMutability": "nonpayable",
      "type": "function"
    },
    {
      "inputs": [
        {
          "internalType": "uint256",
          "name": "_token",
          "type": "uint256"
        },
        {
          "internalType": "address payable",
          "name": "_partnerWalletAddress",
          "type": "address"
        }
      ],
      "name": "buy",
      "outputs": [],
      "stateMutability": "payable",
      "type": "function"
    },
    {
      "inputs": [
        {
          "internalType": "address",
          "name": "_address",
          "type": "address"
        }
      ],
      "name": "checkBalance",
      "outputs": [
        {
          "internalType": "uint256",
          "name": "",
          "type": "uint256"
        }
      ],
      "stateMutability": "view",
      "type": "function"
    },
    {
      "inputs": [
        {
          "internalType": "address",
          "name": "_address",
          "type": "address"
        }
      ],
      "name": "checkIsUserLogged",
      "outputs": [
        {
          "internalType": "bool",
          "name": "",
          "type": "bool"
        }
      ],
      "stateMutability": "view",
      "type": "function"
    },
    {
      "inputs": [],
      "name": "getAllPartners",
      "outputs": [
        {
          "components": [
            {
              "internalType": "address",
              "name": "partnerWalletAddress",
              "type": "address"
            },
            {
              "internalType": "uint256",
              "name": "partnerId",
              "type": "uint256"
            },
            {
              "internalType": "string",
              "name": "name",
              "type": "string"
            },
            {
              "components": [
                {
                  "internalType": "uint256",
                  "name": "productId",
                  "type": "uint256"
                },
                {
                  "internalType": "string",
                  "name": "productName",
                  "type": "string"
                },
                {
                  "internalType": "uint256",
                  "name": "productCost",
                  "type": "uint256"
                },
                {
                  "internalType": "uint256",
                  "name": "token",
                  "type": "uint256"
                }
              ],
              "internalType": "struct Loyalty.Products[]",
              "name": "productList",
              "type": "tuple[]"
            }
          ],
          "internalType": "struct Loyalty.Partners[]",
          "name": "",
          "type": "tuple[]"
        }
      ],
      "stateMutability": "view",
      "type": "function"
    },
    {
      "inputs": [],
      "name": "getAllUsers",
      "outputs": [
        {
          "components": [
            {
              "internalType": "address",
              "name": "userWalletAddress",
              "type": "address"
            },
            {
              "internalType": "uint256",
              "name": "userId",
              "type": "uint256"
            },
            {
              "internalType": "string",
              "name": "name",
              "type": "string"
            },
            {
              "internalType": "string",
              "name": "password",
              "type": "string"
            },
            {
              "internalType": "uint256",
              "name": "tokenBalance",
              "type": "uint256"
            },
            {
              "internalType": "bool",
              "name": "isUserLoggedIn",
              "type": "bool"
            }
          ],
          "internalType": "struct Loyalty.Users[]",
          "name": "",
          "type": "tuple[]"
        }
      ],
      "stateMutability": "view",
      "type": "function"
    },
    {
      "inputs": [
        {
          "internalType": "address",
          "name": "_address",
          "type": "address"
        }
      ],
      "name": "getPartnerDetails",
      "outputs": [
        {
          "components": [
            {
              "internalType": "address",
              "name": "partnerWalletAddress",
              "type": "address"
            },
            {
              "internalType": "uint256",
              "name": "partnerId",
              "type": "uint256"
            },
            {
              "internalType": "string",
              "name": "name",
              "type": "string"
            },
            {
              "components": [
                {
                  "internalType": "uint256",
                  "name": "productId",
                  "type": "uint256"
                },
                {
                  "internalType": "string",
                  "name": "productName",
                  "type": "string"
                },
                {
                  "internalType": "uint256",
                  "name": "productCost",
                  "type": "uint256"
                },
                {
                  "internalType": "uint256",
                  "name": "token",
                  "type": "uint256"
                }
              ],
              "internalType": "struct Loyalty.Products[]",
              "name": "productList",
              "type": "tuple[]"
            }
          ],
          "internalType": "struct Loyalty.Partners",
          "name": "",
          "type": "tuple"
        }
      ],
      "stateMutability": "view",
      "type": "function"
    },
    {
      "inputs": [
        {
          "internalType": "address",
          "name": "_add",
          "type": "address"
        }
      ],
      "name": "getTransactionForPartner",
      "outputs": [
        {
          "components": [
            {
              "internalType": "uint256",
              "name": "token",
              "type": "uint256"
            },
            {
              "internalType": "enum Loyalty.TransactionType",
              "name": "transactionType",
              "type": "uint8"
            },
            {
              "internalType": "address",
              "name": "memberAddress",
              "type": "address"
            },
            {
              "internalType": "address",
              "name": "partnerAddress",
              "type": "address"
            },
            {
              "internalType": "uint256",
              "name": "amount",
              "type": "uint256"
            }
          ],
          "internalType": "struct Loyalty.Transaction[]",
          "name": "",
          "type": "tuple[]"
        }
      ],
      "stateMutability": "view",
      "type": "function"
    },
    {
      "inputs": [
        {
          "internalType": "address",
          "name": "_add",
          "type": "address"
        }
      ],
      "name": "getTransactionForUsers",
      "outputs": [
        {
          "components": [
            {
              "internalType": "uint256",
              "name": "token",
              "type": "uint256"
            },
            {
              "internalType": "enum Loyalty.TransactionType",
              "name": "transactionType",
              "type": "uint8"
            },
            {
              "internalType": "address",
              "name": "memberAddress",
              "type": "address"
            },
            {
              "internalType": "address",
              "name": "partnerAddress",
              "type": "address"
            },
            {
              "internalType": "uint256",
              "name": "amount",
              "type": "uint256"
            }
          ],
          "internalType": "struct Loyalty.Transaction[]",
          "name": "",
          "type": "tuple[]"
        }
      ],
      "stateMutability": "view",
      "type": "function"
    },
    {
      "inputs": [
        {
          "internalType": "address",
          "name": "_address",
          "type": "address"
        }
      ],
      "name": "getUserDetails",
      "outputs": [
        {
          "components": [
            {
              "internalType": "address",
              "name": "userWalletAddress",
              "type": "address"
            },
            {
              "internalType": "uint256",
              "name": "userId",
              "type": "uint256"
            },
            {
              "internalType": "string",
              "name": "name",
              "type": "string"
            },
            {
              "internalType": "string",
              "name": "password",
              "type": "string"
            },
            {
              "internalType": "uint256",
              "name": "tokenBalance",
              "type": "uint256"
            },
            {
              "internalType": "bool",
              "name": "isUserLoggedIn",
              "type": "bool"
            }
          ],
          "internalType": "struct Loyalty.Users",
          "name": "",
          "type": "tuple"
        }
      ],
      "stateMutability": "view",
      "type": "function"
    },
    {
      "inputs": [
        {
          "internalType": "address",
          "name": "_address",
          "type": "address"
        },
        {
          "internalType": "string",
          "name": "_password",
          "type": "string"
        }
      ],
      "name": "login",
      "outputs": [
        {
          "internalType": "bool",
          "name": "",
          "type": "bool"
        }
      ],
      "stateMutability": "nonpayable",
      "type": "function"
    },
    {
      "inputs": [
        {
          "internalType": "address",
          "name": "_address",
          "type": "address"
        }
      ],
      "name": "logout",
      "outputs": [],
      "stateMutability": "nonpayable",
      "type": "function"
    },
    {
      "inputs": [
        {
          "internalType": "address",
          "name": "",
          "type": "address"
        }
      ],
      "name": "partner",
      "outputs": [
        {
          "internalType": "address",
          "name": "partnerWalletAddress",
          "type": "address"
        },
        {
          "internalType": "uint256",
          "name": "partnerId",
          "type": "uint256"
        },
        {
          "internalType": "string",
          "name": "name",
          "type": "string"
        }
      ],
      "stateMutability": "view",
      "type": "function"
    },
    {
      "inputs": [
        {
          "internalType": "address",
          "name": "",
          "type": "address"
        }
      ],
      "name": "partnerAddr",
      "outputs": [
        {
          "internalType": "bool",
          "name": "",
          "type": "bool"
        }
      ],
      "stateMutability": "view",
      "type": "function"
    },
    {
      "inputs": [
        {
          "internalType": "uint256",
          "name": "",
          "type": "uint256"
        }
      ],
      "name": "partnerAddressArray",
      "outputs": [
        {
          "internalType": "address",
          "name": "",
          "type": "address"
        }
      ],
      "stateMutability": "view",
      "type": "function"
    },
    {
      "inputs": [
        {
          "internalType": "uint256",
          "name": "",
          "type": "uint256"
        }
      ],
      "name": "partners",
      "outputs": [
        {
          "internalType": "address",
          "name": "partnerWalletAddress",
          "type": "address"
        },
        {
          "internalType": "uint256",
          "name": "partnerId",
          "type": "uint256"
        },
        {
          "internalType": "string",
          "name": "name",
          "type": "string"
        }
      ],
      "stateMutability": "view",
      "type": "function"
    },
    {
      "inputs": [
        {
          "internalType": "uint256",
          "name": "",
          "type": "uint256"
        }
      ],
      "name": "product",
      "outputs": [
        {
          "internalType": "uint256",
          "name": "productId",
          "type": "uint256"
        },
        {
          "internalType": "string",
          "name": "productName",
          "type": "string"
        },
        {
          "internalType": "uint256",
          "name": "productCost",
          "type": "uint256"
        },
        {
          "internalType": "uint256",
          "name": "token",
          "type": "uint256"
        }
      ],
      "stateMutability": "view",
      "type": "function"
    },
    {
      "inputs": [
        {
          "internalType": "uint256",
          "name": "",
          "type": "uint256"
        }
      ],
      "name": "productArray",
      "outputs": [
        {
          "internalType": "uint256",
          "name": "productId",
          "type": "uint256"
        },
        {
          "internalType": "string",
          "name": "productName",
          "type": "string"
        },
        {
          "internalType": "uint256",
          "name": "productCost",
          "type": "uint256"
        },
        {
          "internalType": "uint256",
          "name": "token",
          "type": "uint256"
        }
      ],
      "stateMutability": "view",
      "type": "function"
    },
    {
      "inputs": [
        {
          "internalType": "uint256",
          "name": "_token",
          "type": "uint256"
        },
        {
          "internalType": "address",
          "name": "_partnerWalletAddress",
          "type": "address"
        }
      ],
      "name": "redeem",
      "outputs": [],
      "stateMutability": "nonpayable",
      "type": "function"
    },
    {
      "inputs": [
        {
          "internalType": "uint256",
          "name": "",
          "type": "uint256"
        }
      ],
      "name": "transactionsInfo",
      "outputs": [
        {
          "internalType": "uint256",
          "name": "token",
          "type": "uint256"
        },
        {
          "internalType": "enum Loyalty.TransactionType",
          "name": "transactionType",
          "type": "uint8"
        },
        {
          "internalType": "address",
          "name": "memberAddress",
          "type": "address"
        },
        {
          "internalType": "address",
          "name": "partnerAddress",
          "type": "address"
        },
        {
          "internalType": "uint256",
          "name": "amount",
          "type": "uint256"
        }
      ],
      "stateMutability": "view",
      "type": "function"
    },
    {
      "inputs": [],
      "name": "transactionsInfoLength",
      "outputs": [
        {
          "internalType": "uint256",
          "name": "",
          "type": "uint256"
        }
      ],
      "stateMutability": "view",
      "type": "function"
    },
    {
      "inputs": [
        {
          "internalType": "address",
          "name": "",
          "type": "address"
        }
      ],
      "name": "user",
      "outputs": [
        {
          "internalType": "address",
          "name": "userWalletAddress",
          "type": "address"
        },
        {
          "internalType": "uint256",
          "name": "userId",
          "type": "uint256"
        },
        {
          "internalType": "string",
          "name": "name",
          "type": "string"
        },
        {
          "internalType": "string",
          "name": "password",
          "type": "string"
        },
        {
          "internalType": "uint256",
          "name": "tokenBalance",
          "type": "uint256"
        },
        {
          "internalType": "bool",
          "name": "isUserLoggedIn",
          "type": "bool"
        }
      ],
      "stateMutability": "view",
      "type": "function"
    },
    {
      "inputs": [
        {
          "internalType": "address",
          "name": "",
          "type": "address"
        }
      ],
      "name": "userAddr",
      "outputs": [
        {
          "internalType": "bool",
          "name": "",
          "type": "bool"
        }
      ],
      "stateMutability": "view",
      "type": "function"
    },
    {
      "inputs": [
        {
          "internalType": "uint256",
          "name": "",
          "type": "uint256"
        }
      ],
      "name": "userAddressArray",
      "outputs": [
        {
          "internalType": "address",
          "name": "",
          "type": "address"
        }
      ],
      "stateMutability": "view",
      "type": "function"
    },
    {
      "inputs": [
        {
          "internalType": "uint256",
          "name": "",
          "type": "uint256"
        }
      ],
      "name": "users",
      "outputs": [
        {
          "internalType": "address",
          "name": "userWalletAddress",
          "type": "address"
        },
        {
          "internalType": "uint256",
          "name": "userId",
          "type": "uint256"
        },
        {
          "internalType": "string",
          "name": "name",
          "type": "string"
        },
        {
          "internalType": "string",
          "name": "password",
          "type": "string"
        },
        {
          "internalType": "uint256",
          "name": "tokenBalance",
          "type": "uint256"
        },
        {
          "internalType": "bool",
          "name": "isUserLoggedIn",
          "type": "bool"
        }
      ],
      "stateMutability": "view",
      "type": "function"
    }
  ],
  "bytecode": "0x608060405234801561001057600080fd5b5061430c806100206000396000f3fe60806040526004361061019c5760003560e01c8063780bd3f1116100ec578063c7a8bbe71161008a578063ccb22a9e11610064578063ccb22a9e146106c5578063d3e83a0814610702578063e2842d791461072d578063f98b3b6c146107585761019c565b8063c7a8bbe714610622578063cc3d967b1461065f578063cc51f9b91461069c5761019c565b806381e7e20e116100c657806381e7e20e14610527578063ad9444ea14610569578063b3f5c30d146105a6578063c3b49d04146105e35761019c565b8063780bd3f1146104a25780637bde82f2146104e25780637deb60251461050b5761019c565b8063297f7b3911610159578063365b98b211610133578063365b98b2146103a55780634e5934d7146103e75780635f51522614610424578063674c7099146104615761019c565b8063297f7b39146102ee5780632bf914ef1461032b5780632f19d50b146103685761019c565b8063079eaf34146101a157806309b56911146101de5780630c467fa614610209578063125b0b34146102485780631cce0cf51461027157806327e4d89c146102b1575b600080fd5b3480156101ad57600080fd5b506101c860048036038101906101c39190612f63565b610795565b6040516101d5919061305a565b60405180910390f35b3480156101ea57600080fd5b506101f3610a79565b6040516102009190613095565b60405180910390f35b34801561021557600080fd5b50610230600480360381019061022b919061310e565b610a86565b60405161023f9392919061314a565b60405180910390f35b34801561025457600080fd5b5061026f600480360381019061026a91906131b4565b610b58565b005b34801561027d57600080fd5b5061029860048036038101906102939190613223565b610ca5565b6040516102a89493929190613250565b60405180910390f35b3480156102bd57600080fd5b506102d860048036038101906102d3919061310e565b610d6d565b6040516102e59190613448565b60405180910390f35b3480156102fa57600080fd5b506103156004803603810190610310919061310e565b610fb9565b6040516103229190613485565b60405180910390f35b34801561033757600080fd5b50610352600480360381019061034d91906134a0565b611012565b60405161035f919061305a565b60405180910390f35b34801561037457600080fd5b5061038f600480360381019061038a91906134e9565b6112ce565b60405161039c9190613485565b60405180910390f35b3480156103b157600080fd5b506103cc60048036038101906103c79190613223565b611421565b6040516103de96959493929190613545565b60405180910390f35b3480156103f357600080fd5b5061040e6004803603810190610409919061310e565b6115aa565b60405161041b9190613448565b60405180910390f35b34801561043057600080fd5b5061044b6004803603810190610446919061310e565b6117f6565b6040516104589190613095565b60405180910390f35b34801561046d57600080fd5b5061048860048036038101906104839190613223565b611817565b6040516104999594939291906135c3565b60405180910390f35b3480156104ae57600080fd5b506104c960048036038101906104c49190613223565b6118aa565b6040516104d99493929190613250565b60405180910390f35b3480156104ee57600080fd5b5061050960048036038101906105049190613616565b611962565b005b61052560048036038101906105209190613694565b611c46565b005b34801561053357600080fd5b5061054e6004803603810190610549919061310e565b611f0b565b60405161056096959493929190613545565b60405180910390f35b34801561057557600080fd5b50610590600480360381019061058b9190613223565b612084565b60405161059d91906136d4565b60405180910390f35b3480156105b257600080fd5b506105cd60048036038101906105c89190613223565b6120c3565b6040516105da91906136d4565b60405180910390f35b3480156105ef57600080fd5b5061060a60048036038101906106059190613223565b612102565b6040516106199392919061314a565b60405180910390f35b34801561062e57600080fd5b506106496004803603810190610644919061310e565b6121e4565b6040516106569190613485565b60405180910390f35b34801561066b57600080fd5b506106866004803603810190610681919061310e565b612204565b60405161069391906137d8565b60405180910390f35b3480156106a857600080fd5b506106c360048036038101906106be919061310e565b612406565b005b3480156106d157600080fd5b506106ec60048036038101906106e7919061310e565b612464565b6040516106f99190613989565b60405180910390f35b34801561070e57600080fd5b506107176126be565b6040516107249190613ad7565b60405180910390f35b34801561073957600080fd5b506107426129ef565b60405161074f9190613c4b565b60405180910390f35b34801561076457600080fd5b5061077f600480360381019061077a919061310e565b612cc8565b60405161078c9190613485565b60405180910390f35b606060001515600d60003373ffffffffffffffffffffffffffffffffffffffff1673ffffffffffffffffffffffffffffffffffffffff16815260200190815260200160002060009054906101000a900460ff1615151461082a576040517f08c379a000000000000000000000000000000000000000000000000000000000815260040161082190613cdf565b60405180910390fd5b6001600d60003373ffffffffffffffffffffffffffffffffffffffff1673ffffffffffffffffffffffffffffffffffffffff16815260200190815260200160002060006101000a81548160ff0219169083151502179055506002600081548092919061089590613d2e565b9190505550600060649050600060025490506040518060c001604052803373ffffffffffffffffffffffffffffffffffffffff16815260200182815260200186815260200185815260200183815260200160001515815250600a60003373ffffffffffffffffffffffffffffffffffffffff1673ffffffffffffffffffffffffffffffffffffffff16815260200190815260200160002060008201518160000160006101000a81548173ffffffffffffffffffffffffffffffffffffffff021916908373ffffffffffffffffffffffffffffffffffffffff1602179055506020820151816001015560408201518160020190816109929190613f82565b5060608201518160030190816109a89190613f82565b506080820151816004015560a08201518160050160006101000a81548160ff0219169083151502179055509050506006339080600181540180825580915050600190039060005260206000200160009091909190916101000a81548173ffffffffffffffffffffffffffffffffffffffff021916908373ffffffffffffffffffffffffffffffffffffffff1602179055506040518060400160405280600a81526020017f55736572206164646564000000000000000000000000000000000000000000008152509250505092915050565b6000600980549050905090565b600b6020528060005260406000206000915090508060000160009054906101000a900473ffffffffffffffffffffffffffffffffffffffff1690806001015490806002018054610ad590613da5565b80601f0160208091040260200160405190810160405280929190818152602001828054610b0190613da5565b8015610b4e5780601f10610b2357610100808354040283529160200191610b4e565b820191906000526020600020905b815481529060010190602001808311610b3157829003601f168201915b5050505050905083565b600080815480929190610b6a90613d2e565b9190505550600080549050600060405180608001604052808381526020018681526020018581526020018481525090506008819080600181540180825580915050600190039060005260206000209060040201600090919091909150600082015181600001556020820151816001019081610be59190613f82565b5060408201518160020155606082015181600301555050600b60003373ffffffffffffffffffffffffffffffffffffffff1673ffffffffffffffffffffffffffffffffffffffff168152602001908152602001600020600301819080600181540180825580915050600190039060005260206000209060040201600090919091909150600082015181600001556020820151816001019081610c879190613f82565b50604082015181600201556060820151816003015550505050505050565b60088181548110610cb557600080fd5b9060005260206000209060040201600091509050806000015490806001018054610cde90613da5565b80601f0160208091040260200160405190810160405280929190818152602001828054610d0a90613da5565b8015610d575780601f10610d2c57610100808354040283529160200191610d57565b820191906000526020600020905b815481529060010190602001808311610d3a57829003601f168201915b5050505050908060020154908060030154905084565b60606000600980549050905060008167ffffffffffffffff811115610d9557610d94612e38565b5b604051908082528060200260200182016040528015610dce57816020015b610dbb612ce8565b815260200190600190039081610db35790505b50905060005b82811015610fae578473ffffffffffffffffffffffffffffffffffffffff1660098281548110610e0757610e06614054565b5b906000526020600020906004020160020160009054906101000a900473ffffffffffffffffffffffffffffffffffffffff1673ffffffffffffffffffffffffffffffffffffffff1603610f9b5760098181548110610e6857610e67614054565b5b90600052602060002090600402016040518060a0016040529081600082015481526020016001820160009054906101000a900460ff166001811115610eb057610eaf6132d7565b5b6001811115610ec257610ec16132d7565b5b81526020016001820160019054906101000a900473ffffffffffffffffffffffffffffffffffffffff1673ffffffffffffffffffffffffffffffffffffffff1673ffffffffffffffffffffffffffffffffffffffff1681526020016002820160009054906101000a900473ffffffffffffffffffffffffffffffffffffffff1673ffffffffffffffffffffffffffffffffffffffff1673ffffffffffffffffffffffffffffffffffffffff168152602001600382015481525050828281518110610f8f57610f8e614054565b5b60200260200101819052505b8080610fa690613d2e565b915050610dd4565b508092505050919050565b6000600a60008373ffffffffffffffffffffffffffffffffffffffff1673ffffffffffffffffffffffffffffffffffffffff16815260200190815260200160002060050160009054906101000a900460ff169050919050565b606060001515600e60003373ffffffffffffffffffffffffffffffffffffffff1673ffffffffffffffffffffffffffffffffffffffff16815260200190815260200160002060009054906101000a900460ff161515146110a7576040517f08c379a000000000000000000000000000000000000000000000000000000000815260040161109e906140f5565b60405180910390fd5b6001600e60003373ffffffffffffffffffffffffffffffffffffffff1673ffffffffffffffffffffffffffffffffffffffff16815260200190815260200160002060006101000a81548160ff0219169083151502179055506001600081548092919061111290613d2e565b919050555060006001549050611126612d55565b6000600b60003373ffffffffffffffffffffffffffffffffffffffff1673ffffffffffffffffffffffffffffffffffffffff1681526020019081526020016000209050338160000160006101000a81548173ffffffffffffffffffffffffffffffffffffffff021916908373ffffffffffffffffffffffffffffffffffffffff160217905550828160010181905550848160020190816111c69190613f82565b50806003018290806001815401808255809150506001900390600052602060002090600402016000909190919091506000820151816000015560208201518160010190816112149190613f82565b50604082015181600201556060820151816003015550506007339080600181540180825580915050600190039060005260206000200160009091909190916101000a81548173ffffffffffffffffffffffffffffffffffffffff021916908373ffffffffffffffffffffffffffffffffffffffff1602179055506040518060400160405280600d81526020017f506172746e6572206164646564000000000000000000000000000000000000008152509350505050919050565b6000816040516020016112e19190614151565b60405160208183030381529060405280519060200120600a60008573ffffffffffffffffffffffffffffffffffffffff1673ffffffffffffffffffffffffffffffffffffffff16815260200190815260200160002060030160405160200161134991906141eb565b6040516020818303038152906040528051906020012003611416576001600a60008573ffffffffffffffffffffffffffffffffffffffff1673ffffffffffffffffffffffffffffffffffffffff16815260200190815260200160002060050160006101000a81548160ff021916908315150217905550600a60008473ffffffffffffffffffffffffffffffffffffffff1673ffffffffffffffffffffffffffffffffffffffff16815260200190815260200160002060050160009054906101000a900460ff16905061141b565b600090505b92915050565b6005818154811061143157600080fd5b90600052602060002090600602016000915090508060000160009054906101000a900473ffffffffffffffffffffffffffffffffffffffff169080600101549080600201805461148090613da5565b80601f01602080910402602001604051908101604052809291908181526020018280546114ac90613da5565b80156114f95780601f106114ce576101008083540402835291602001916114f9565b820191906000526020600020905b8154815290600101906020018083116114dc57829003601f168201915b50505050509080600301805461150e90613da5565b80601f016020809104026020016040519081016040528092919081815260200182805461153a90613da5565b80156115875780601f1061155c57610100808354040283529160200191611587565b820191906000526020600020905b81548152906001019060200180831161156a57829003601f168201915b5050505050908060040154908060050160009054906101000a900460ff16905086565b60606000600980549050905060008167ffffffffffffffff8111156115d2576115d1612e38565b5b60405190808252806020026020018201604052801561160b57816020015b6115f8612ce8565b8152602001906001900390816115f05790505b50905060005b828110156117eb578473ffffffffffffffffffffffffffffffffffffffff166009828154811061164457611643614054565b5b906000526020600020906004020160010160019054906101000a900473ffffffffffffffffffffffffffffffffffffffff1673ffffffffffffffffffffffffffffffffffffffff16036117d857600981815481106116a5576116a4614054565b5b90600052602060002090600402016040518060a0016040529081600082015481526020016001820160009054906101000a900460ff1660018111156116ed576116ec6132d7565b5b60018111156116ff576116fe6132d7565b5b81526020016001820160019054906101000a900473ffffffffffffffffffffffffffffffffffffffff1673ffffffffffffffffffffffffffffffffffffffff1673ffffffffffffffffffffffffffffffffffffffff1681526020016002820160009054906101000a900473ffffffffffffffffffffffffffffffffffffffff1673ffffffffffffffffffffffffffffffffffffffff1673ffffffffffffffffffffffffffffffffffffffff1681526020016003820154815250508282815181106117cc576117cb614054565b5b60200260200101819052505b80806117e390613d2e565b915050611611565b508092505050919050565b60008173ffffffffffffffffffffffffffffffffffffffff16319050919050565b6009818154811061182757600080fd5b90600052602060002090600402016000915090508060000154908060010160009054906101000a900460ff16908060010160019054906101000a900473ffffffffffffffffffffffffffffffffffffffff16908060020160009054906101000a900473ffffffffffffffffffffffffffffffffffffffff16908060030154905085565b600c6020528060005260406000206000915090508060000154908060010180546118d390613da5565b80601f01602080910402602001604051908101604052809291908181526020018280546118ff90613da5565b801561194c5780601f106119215761010080835404028352916020019161194c565b820191906000526020600020905b81548152906001019060200180831161192f57829003601f168201915b5050505050908060020154908060030154905084565b81600a60003373ffffffffffffffffffffffffffffffffffffffff1673ffffffffffffffffffffffffffffffffffffffff1681526020019081526020016000206004015410156119e7576040517f08c379a00000000000000000000000000000000000000000000000000000000081526004016119de9061424e565b60405180910390fd5b81600a60003373ffffffffffffffffffffffffffffffffffffffff1673ffffffffffffffffffffffffffffffffffffffff16815260200190815260200160002060040154611a35919061426e565b600a60003373ffffffffffffffffffffffffffffffffffffffff1673ffffffffffffffffffffffffffffffffffffffff1681526020019081526020016000206004018190555060096040518060a00160405280848152602001600180811115611aa157611aa06132d7565b5b8152602001600a60003373ffffffffffffffffffffffffffffffffffffffff1673ffffffffffffffffffffffffffffffffffffffff16815260200190815260200160002060000160009054906101000a900473ffffffffffffffffffffffffffffffffffffffff1673ffffffffffffffffffffffffffffffffffffffff1681526020018373ffffffffffffffffffffffffffffffffffffffff168152602001600081525090806001815401808255809150506001900390600052602060002090600402016000909190919091506000820151816000015560208201518160010160006101000a81548160ff02191690836001811115611ba357611ba26132d7565b5b021790555060408201518160010160016101000a81548173ffffffffffffffffffffffffffffffffffffffff021916908373ffffffffffffffffffffffffffffffffffffffff16021790555060608201518160020160006101000a81548173ffffffffffffffffffffffffffffffffffffffff021916908373ffffffffffffffffffffffffffffffffffffffff1602179055506080820151816003015550505050565b3373ffffffffffffffffffffffffffffffffffffffff16313411611f075781600a60003373ffffffffffffffffffffffffffffffffffffffff1673ffffffffffffffffffffffffffffffffffffffff16815260200190815260200160002060040154611cb291906142a2565b600a60003373ffffffffffffffffffffffffffffffffffffffff1673ffffffffffffffffffffffffffffffffffffffff168152602001908152602001600020600401819055508073ffffffffffffffffffffffffffffffffffffffff166108fc349081150290604051600060405180830381858888f19350505050158015611d3e573d6000803e3d6000fd5b5060096040518060a0016040528084815260200160006001811115611d6657611d656132d7565b5b8152602001600a60003373ffffffffffffffffffffffffffffffffffffffff1673ffffffffffffffffffffffffffffffffffffffff16815260200190815260200160002060000160009054906101000a900473ffffffffffffffffffffffffffffffffffffffff1673ffffffffffffffffffffffffffffffffffffffff1681526020018373ffffffffffffffffffffffffffffffffffffffff1681526020013481525090806001815401808255809150506001900390600052602060002090600402016000909190919091506000820151816000015560208201518160010160006101000a81548160ff02191690836001811115611e6757611e666132d7565b5b021790555060408201518160010160016101000a81548173ffffffffffffffffffffffffffffffffffffffff021916908373ffffffffffffffffffffffffffffffffffffffff16021790555060608201518160020160006101000a81548173ffffffffffffffffffffffffffffffffffffffff021916908373ffffffffffffffffffffffffffffffffffffffff1602179055506080820151816003015550505b5050565b600a6020528060005260406000206000915090508060000160009054906101000a900473ffffffffffffffffffffffffffffffffffffffff1690806001015490806002018054611f5a90613da5565b80601f0160208091040260200160405190810160405280929190818152602001828054611f8690613da5565b8015611fd35780601f10611fa857610100808354040283529160200191611fd3565b820191906000526020600020905b815481529060010190602001808311611fb657829003601f168201915b505050505090806003018054611fe890613da5565b80601f016020809104026020016040519081016040528092919081815260200182805461201490613da5565b80156120615780601f1061203657610100808354040283529160200191612061565b820191906000526020600020905b81548152906001019060200180831161204457829003601f168201915b5050505050908060040154908060050160009054906101000a900460ff16905086565b6006818154811061209457600080fd5b906000526020600020016000915054906101000a900473ffffffffffffffffffffffffffffffffffffffff1681565b600781815481106120d357600080fd5b906000526020600020016000915054906101000a900473ffffffffffffffffffffffffffffffffffffffff1681565b6004818154811061211257600080fd5b90600052602060002090600402016000915090508060000160009054906101000a900473ffffffffffffffffffffffffffffffffffffffff169080600101549080600201805461216190613da5565b80601f016020809104026020016040519081016040528092919081815260200182805461218d90613da5565b80156121da5780601f106121af576101008083540402835291602001916121da565b820191906000526020600020905b8154815290600101906020018083116121bd57829003601f168201915b5050505050905083565b600d6020528060005260406000206000915054906101000a900460ff1681565b61220c612d7d565b600a60008373ffffffffffffffffffffffffffffffffffffffff1673ffffffffffffffffffffffffffffffffffffffff1681526020019081526020016000206040518060c00160405290816000820160009054906101000a900473ffffffffffffffffffffffffffffffffffffffff1673ffffffffffffffffffffffffffffffffffffffff1673ffffffffffffffffffffffffffffffffffffffff168152602001600182015481526020016002820180546122c690613da5565b80601f01602080910402602001604051908101604052809291908181526020018280546122f290613da5565b801561233f5780601f106123145761010080835404028352916020019161233f565b820191906000526020600020905b81548152906001019060200180831161232257829003601f168201915b5050505050815260200160038201805461235890613da5565b80601f016020809104026020016040519081016040528092919081815260200182805461238490613da5565b80156123d15780601f106123a6576101008083540402835291602001916123d1565b820191906000526020600020905b8154815290600101906020018083116123b457829003601f168201915b50505050508152602001600482015481526020016005820160009054906101000a900460ff1615151515815250509050919050565b6000600a60008373ffffffffffffffffffffffffffffffffffffffff1673ffffffffffffffffffffffffffffffffffffffff16815260200190815260200160002060050160006101000a81548160ff02191690831515021790555050565b61246c612dcb565b600b60008373ffffffffffffffffffffffffffffffffffffffff1673ffffffffffffffffffffffffffffffffffffffff1681526020019081526020016000206040518060800160405290816000820160009054906101000a900473ffffffffffffffffffffffffffffffffffffffff1673ffffffffffffffffffffffffffffffffffffffff1673ffffffffffffffffffffffffffffffffffffffff1681526020016001820154815260200160028201805461252690613da5565b80601f016020809104026020016040519081016040528092919081815260200182805461255290613da5565b801561259f5780601f106125745761010080835404028352916020019161259f565b820191906000526020600020905b81548152906001019060200180831161258257829003601f168201915b5050505050815260200160038201805480602002602001604051908101604052809291908181526020016000905b828210156126af57838290600052602060002090600402016040518060800160405290816000820154815260200160018201805461260a90613da5565b80601f016020809104026020016040519081016040528092919081815260200182805461263690613da5565b80156126835780601f1061265857610100808354040283529160200191612683565b820191906000526020600020905b81548152906001019060200180831161266657829003601f168201915b5050505050815260200160028201548152602001600382015481525050815260200190600101906125cd565b50505050815250509050919050565b6060600060078054905067ffffffffffffffff8111156126e1576126e0612e38565b5b60405190808252806020026020018201604052801561271a57816020015b612707612dcb565b8152602001906001900390816126ff5790505b50905060005b6007805490508110156129e757600b60006007838154811061274557612744614054565b5b9060005260206000200160009054906101000a900473ffffffffffffffffffffffffffffffffffffffff1673ffffffffffffffffffffffffffffffffffffffff1673ffffffffffffffffffffffffffffffffffffffff1681526020019081526020016000206040518060800160405290816000820160009054906101000a900473ffffffffffffffffffffffffffffffffffffffff1673ffffffffffffffffffffffffffffffffffffffff1673ffffffffffffffffffffffffffffffffffffffff1681526020016001820154815260200160028201805461282590613da5565b80601f016020809104026020016040519081016040528092919081815260200182805461285190613da5565b801561289e5780601f106128735761010080835404028352916020019161289e565b820191906000526020600020905b81548152906001019060200180831161288157829003601f168201915b5050505050815260200160038201805480602002602001604051908101604052809291908181526020016000905b828210156129ae57838290600052602060002090600402016040518060800160405290816000820154815260200160018201805461290990613da5565b80601f016020809104026020016040519081016040528092919081815260200182805461293590613da5565b80156129825780601f1061295757610100808354040283529160200191612982565b820191906000526020600020905b81548152906001019060200180831161296557829003601f168201915b5050505050815260200160028201548152602001600382015481525050815260200190600101906128cc565b50505050815250508282815181106129c9576129c8614054565b5b602002602001018190525080806129df90613d2e565b915050612720565b508091505090565b6060600060068054905067ffffffffffffffff811115612a1257612a11612e38565b5b604051908082528060200260200182016040528015612a4b57816020015b612a38612d7d565b815260200190600190039081612a305790505b50905060005b600680549050811015612cc057600a600060068381548110612a7657612a75614054565b5b9060005260206000200160009054906101000a900473ffffffffffffffffffffffffffffffffffffffff1673ffffffffffffffffffffffffffffffffffffffff1673ffffffffffffffffffffffffffffffffffffffff1681526020019081526020016000206040518060c00160405290816000820160009054906101000a900473ffffffffffffffffffffffffffffffffffffffff1673ffffffffffffffffffffffffffffffffffffffff1673ffffffffffffffffffffffffffffffffffffffff16815260200160018201548152602001600282018054612b5690613da5565b80601f0160208091040260200160405190810160405280929190818152602001828054612b8290613da5565b8015612bcf5780601f10612ba457610100808354040283529160200191612bcf565b820191906000526020600020905b815481529060010190602001808311612bb257829003601f168201915b50505050508152602001600382018054612be890613da5565b80601f0160208091040260200160405190810160405280929190818152602001828054612c1490613da5565b8015612c615780601f10612c3657610100808354040283529160200191612c61565b820191906000526020600020905b815481529060010190602001808311612c4457829003601f168201915b50505050508152602001600482015481526020016005820160009054906101000a900460ff161515151581525050828281518110612ca257612ca1614054565b5b60200260200101819052508080612cb890613d2e565b915050612a51565b508091505090565b600e6020528060005260406000206000915054906101000a900460ff1681565b6040518060a001604052806000815260200160006001811115612d0e57612d0d6132d7565b5b8152602001600073ffffffffffffffffffffffffffffffffffffffff168152602001600073ffffffffffffffffffffffffffffffffffffffff168152602001600081525090565b6040518060800160405280600081526020016060815260200160008152602001600081525090565b6040518060c00160405280600073ffffffffffffffffffffffffffffffffffffffff168152602001600081526020016060815260200160608152602001600081526020016000151581525090565b6040518060800160405280600073ffffffffffffffffffffffffffffffffffffffff1681526020016000815260200160608152602001606081525090565b6000604051905090565b600080fd5b600080fd5b600080fd5b600080fd5b6000601f19601f8301169050919050565b7f4e487b7100000000000000000000000000000000000000000000000000000000600052604160045260246000fd5b612e7082612e27565b810181811067ffffffffffffffff82111715612e8f57612e8e612e38565b5b80604052505050565b6000612ea2612e09565b9050612eae8282612e67565b919050565b600067ffffffffffffffff821115612ece57612ecd612e38565b5b612ed782612e27565b9050602081019050919050565b82818337600083830152505050565b6000612f06612f0184612eb3565b612e98565b905082815260208101848484011115612f2257612f21612e22565b5b612f2d848285612ee4565b509392505050565b600082601f830112612f4a57612f49612e1d565b5b8135612f5a848260208601612ef3565b91505092915050565b60008060408385031215612f7a57612f79612e13565b5b600083013567ffffffffffffffff811115612f9857612f97612e18565b5b612fa485828601612f35565b925050602083013567ffffffffffffffff811115612fc557612fc4612e18565b5b612fd185828601612f35565b9150509250929050565b600081519050919050565b600082825260208201905092915050565b60005b83811015613015578082015181840152602081019050612ffa565b60008484015250505050565b600061302c82612fdb565b6130368185612fe6565b9350613046818560208601612ff7565b61304f81612e27565b840191505092915050565b600060208201905081810360008301526130748184613021565b905092915050565b6000819050919050565b61308f8161307c565b82525050565b60006020820190506130aa6000830184613086565b92915050565b600073ffffffffffffffffffffffffffffffffffffffff82169050919050565b60006130db826130b0565b9050919050565b6130eb816130d0565b81146130f657600080fd5b50565b600081359050613108816130e2565b92915050565b60006020828403121561312457613123612e13565b5b6000613132848285016130f9565b91505092915050565b613144816130d0565b82525050565b600060608201905061315f600083018661313b565b61316c6020830185613086565b818103604083015261317e8184613021565b9050949350505050565b6131918161307c565b811461319c57600080fd5b50565b6000813590506131ae81613188565b92915050565b6000806000606084860312156131cd576131cc612e13565b5b600084013567ffffffffffffffff8111156131eb576131ea612e18565b5b6131f786828701612f35565b93505060206132088682870161319f565b92505060406132198682870161319f565b9150509250925092565b60006020828403121561323957613238612e13565b5b60006132478482850161319f565b91505092915050565b60006080820190506132656000830187613086565b81810360208301526132778186613021565b90506132866040830185613086565b6132936060830184613086565b95945050505050565b600081519050919050565b600082825260208201905092915050565b6000819050602082019050919050565b6132d18161307c565b82525050565b7f4e487b7100000000000000000000000000000000000000000000000000000000600052602160045260246000fd5b60028110613317576133166132d7565b5b50565b600081905061332882613306565b919050565b60006133388261331a565b9050919050565b6133488161332d565b82525050565b613357816130d0565b82525050565b60a08201600082015161337360008501826132c8565b506020820151613386602085018261333f565b506040820151613399604085018261334e565b5060608201516133ac606085018261334e565b5060808201516133bf60808501826132c8565b50505050565b60006133d1838361335d565b60a08301905092915050565b6000602082019050919050565b60006133f58261329c565b6133ff81856132a7565b935061340a836132b8565b8060005b8381101561343b57815161342288826133c5565b975061342d836133dd565b92505060018101905061340e565b5085935050505092915050565b6000602082019050818103600083015261346281846133ea565b905092915050565b60008115159050919050565b61347f8161346a565b82525050565b600060208201905061349a6000830184613476565b92915050565b6000602082840312156134b6576134b5612e13565b5b600082013567ffffffffffffffff8111156134d4576134d3612e18565b5b6134e084828501612f35565b91505092915050565b60008060408385031215613500576134ff612e13565b5b600061350e858286016130f9565b925050602083013567ffffffffffffffff81111561352f5761352e612e18565b5b61353b85828601612f35565b9150509250929050565b600060c08201905061355a600083018961313b565b6135676020830188613086565b81810360408301526135798187613021565b9050818103606083015261358d8186613021565b905061359c6080830185613086565b6135a960a0830184613476565b979650505050505050565b6135bd8161332d565b82525050565b600060a0820190506135d86000830188613086565b6135e560208301876135b4565b6135f2604083018661313b565b6135ff606083018561313b565b61360c6080830184613086565b9695505050505050565b6000806040838503121561362d5761362c612e13565b5b600061363b8582860161319f565b925050602061364c858286016130f9565b9150509250929050565b6000613661826130b0565b9050919050565b61367181613656565b811461367c57600080fd5b50565b60008135905061368e81613668565b92915050565b600080604083850312156136ab576136aa612e13565b5b60006136b98582860161319f565b92505060206136ca8582860161367f565b9150509250929050565b60006020820190506136e9600083018461313b565b92915050565b600082825260208201905092915050565b600061370b82612fdb565b61371581856136ef565b9350613725818560208601612ff7565b61372e81612e27565b840191505092915050565b6137428161346a565b82525050565b600060c083016000830151613760600086018261334e565b50602083015161377360208601826132c8565b506040830151848203604086015261378b8282613700565b915050606083015184820360608601526137a58282613700565b91505060808301516137ba60808601826132c8565b5060a08301516137cd60a0860182613739565b508091505092915050565b600060208201905081810360008301526137f28184613748565b905092915050565b600081519050919050565b600082825260208201905092915050565b6000819050602082019050919050565b600060808301600083015161383e60008601826132c8565b50602083015184820360208601526138568282613700565b915050604083015161386b60408601826132c8565b50606083015161387e60608601826132c8565b508091505092915050565b60006138958383613826565b905092915050565b6000602082019050919050565b60006138b5826137fa565b6138bf8185613805565b9350836020820285016138d185613816565b8060005b8581101561390d57848403895281516138ee8582613889565b94506138f98361389d565b925060208a019950506001810190506138d5565b50829750879550505050505092915050565b6000608083016000830151613937600086018261334e565b50602083015161394a60208601826132c8565b50604083015184820360408601526139628282613700565b9150506060830151848203606086015261397c82826138aa565b9150508091505092915050565b600060208201905081810360008301526139a3818461391f565b905092915050565b600081519050919050565b600082825260208201905092915050565b6000819050602082019050919050565b60006080830160008301516139ef600086018261334e565b506020830151613a0260208601826132c8565b5060408301518482036040860152613a1a8282613700565b91505060608301518482036060860152613a3482826138aa565b9150508091505092915050565b6000613a4d83836139d7565b905092915050565b6000602082019050919050565b6000613a6d826139ab565b613a7781856139b6565b935083602082028501613a89856139c7565b8060005b85811015613ac55784840389528151613aa68582613a41565b9450613ab183613a55565b925060208a01995050600181019050613a8d565b50829750879550505050505092915050565b60006020820190508181036000830152613af18184613a62565b905092915050565b600081519050919050565b600082825260208201905092915050565b6000819050602082019050919050565b600060c083016000830151613b3d600086018261334e565b506020830151613b5060208601826132c8565b5060408301518482036040860152613b688282613700565b91505060608301518482036060860152613b828282613700565b9150506080830151613b9760808601826132c8565b5060a0830151613baa60a0860182613739565b508091505092915050565b6000613bc18383613b25565b905092915050565b6000602082019050919050565b6000613be182613af9565b613beb8185613b04565b935083602082028501613bfd85613b15565b8060005b85811015613c395784840389528151613c1a8582613bb5565b9450613c2583613bc9565b925060208a01995050600181019050613c01565b50829750879550505050505092915050565b60006020820190508181036000830152613c658184613bd6565b905092915050565b7f55736572204164647265737320616c7265616479206578697374732e2055736560008201527f72206e6f742061646465642e0000000000000000000000000000000000000000602082015250565b6000613cc9602c83612fe6565b9150613cd482613c6d565b604082019050919050565b60006020820190508181036000830152613cf881613cbc565b9050919050565b7f4e487b7100000000000000000000000000000000000000000000000000000000600052601160045260246000fd5b6000613d398261307c565b91507fffffffffffffffffffffffffffffffffffffffffffffffffffffffffffffffff8203613d6b57613d6a613cff565b5b600182019050919050565b7f4e487b7100000000000000000000000000000000000000000000000000000000600052602260045260246000fd5b60006002820490506001821680613dbd57607f821691505b602082108103613dd057613dcf613d76565b5b50919050565b60008190508160005260206000209050919050565b60006020601f8301049050919050565b600082821b905092915050565b600060088302613e387fffffffffffffffffffffffffffffffffffffffffffffffffffffffffffffffff82613dfb565b613e428683613dfb565b95508019841693508086168417925050509392505050565b6000819050919050565b6000613e7f613e7a613e758461307c565b613e5a565b61307c565b9050919050565b6000819050919050565b613e9983613e64565b613ead613ea582613e86565b848454613e08565b825550505050565b600090565b613ec2613eb5565b613ecd818484613e90565b505050565b5b81811015613ef157613ee6600082613eba565b600181019050613ed3565b5050565b601f821115613f3657613f0781613dd6565b613f1084613deb565b81016020851015613f1f578190505b613f33613f2b85613deb565b830182613ed2565b50505b505050565b600082821c905092915050565b6000613f5960001984600802613f3b565b1980831691505092915050565b6000613f728383613f48565b9150826002028217905092915050565b613f8b82612fdb565b67ffffffffffffffff811115613fa457613fa3612e38565b5b613fae8254613da5565b613fb9828285613ef5565b600060209050601f831160018114613fec5760008415613fda578287015190505b613fe48582613f66565b86555061404c565b601f198416613ffa86613dd6565b60005b8281101561402257848901518255600182019150602085019450602081019050613ffd565b8683101561403f578489015161403b601f891682613f48565b8355505b6001600288020188555050505b505050505050565b7f4e487b7100000000000000000000000000000000000000000000000000000000600052603260045260246000fd5b7f506172746e6572204164647265737320616c7265616479206578697374732e2060008201527f506172746e6572206e6f742061646465642e0000000000000000000000000000602082015250565b60006140df603283612fe6565b91506140ea82614083565b604082019050919050565b6000602082019050818103600083015261410e816140d2565b9050919050565b600081905092915050565b600061412b82612fdb565b6141358185614115565b9350614145818560208601612ff7565b80840191505092915050565b600061415d8284614120565b915081905092915050565b6000815461417581613da5565b61417f8186614115565b9450600182166000811461419a57600181146141af576141e2565b60ff19831686528115158202860193506141e2565b6141b885613dd6565b60005b838110156141da578154818901526001820191506020810190506141bb565b838801955050505b50505092915050565b60006141f78284614168565b915081905092915050565b7f496e73756666696369656e7420706f696e747300000000000000000000000000600082015250565b6000614238601383612fe6565b915061424382614202565b602082019050919050565b600060208201905081810360008301526142678161422b565b9050919050565b60006142798261307c565b91506142848361307c565b925082820390508181111561429c5761429b613cff565b5b92915050565b60006142ad8261307c565b91506142b88361307c565b92508282019050808211156142d0576142cf613cff565b5b9291505056fea26469706673582212203fb1ed4b74c045826137000dcaf3d3087ba3a85f2ba8abcb67667f39d567866964736f6c63430008110033",
  "linkReferences": {},
  "deployedLinkReferences": {}
}